:020000040800F2
:10000000180A00209D010008A5010008A7010008AA
:10001000A9010008AB010008AD01000800000000C4
:1000200000000000000000000000000005010008C2
:10003000B101000800000000490100085D1300083C
:10004000B7010008B7010008B7010008B7010008B0
:10005000B7010008B7010008B7010008B7010008A0
:10006000B7010008B7010008B7010008B701000890
:10007000B7010008B701000891020008B7010008A5
:10008000B7010008C5020008B7010008B701000861
:10009000B7010008B7010008B7010008B701000860
:1000A000B7010008B7010008B7010008B701000850
:1000B000B7010008B7010008B7010008B701000840
:1000C000B7010008B7010008B7010008B701000830
:1000D000B7010008DD0D00080D0E0008B70100088B
:1000E000B7010008B7010008B7010008DFF810D019
:1000F00000F066F80048004701120008AFF30080E6
:10010000180A0020224B19680868B0E8F00F80F345
:100110000988BFF36F8F4FF0000080F311884EF015
:100120000D0E70470000000006480068006880F36C
:10013000088862B661B6BFF34F8FBFF36F8F00DFE1
:1001400000BF00BF08ED00E0EFF30980BFF36F8F41
:100150000F4B1A6820E9F00F106008B54FF0BF0090
:1001600080F31188BFF34F8FBFF36F8F01F0C6F894
:100170004FF0000080F31188BDE808401968086856
:10018000B0E8F00F80F30988BFF36F8F704700BFAE
:1001900074000020EFF30580704700000648804798
:1001A00006480047FEE7FEE7FEE7FEE7FEE7FEE75C
:1001B000FEE7FEE7FEE7FEE77D0D0008ED00000824
:1001C000064C074D06E0E06840F0010394E80700A4
:1001D00098471034AC42F6D3FFF78CFF481D000857
:1001E000681D000808B50121102000F07BFB1020DD
:1001F0008DF803004002ADF8000002208DF80200E7
:100200006946054800F0D1F80348C06840F4005042
:100210000149C86008BD00000010014010B500F0A1
:10022000CDF900F0F7F910BD10B500F085FC00F035
:100230001FFC10BD10B500F0B1FE00F01BFE00F079
:100240008FFF00F049FE002407E0054951F8240023
:10025000012100F002FE601CC4B2022CF5DB10BDCF
:100260005C0000200948C06800F4005030B1074825
:10027000C06820F400500549C86005E00348C06824
:1002800040F400500149C860704700000010014070
:1002900010B54FF4005000F04BF801280ED100F0DB
:1002A00095FF0748006800684FF6FE710840044952
:1002B000096808604FF4005000F02CF810BD0000F1
:1002C0006400002010B54FF0007000F031F80128F4
:1002D0000FD1022000F07AFF0648406800684FF610
:1002E000FE7108400349496808604FF0007000F053
:1002F00011F810BD6400002000F0805111B10349D5
:10030000086001E0024948607047000004040240B0
:100310000000024000F0805111B10349086001E083
:100320000249486070470000040402400000024097
:1003300001460020002201F0805313B1054B1A68DA
:1003400001E0054B1A6802EA01030BB1012000E04D
:100350000020704700040240000002401AB1036808
:100360000B43036002E003688B430360704710B5E2
:100370000022026847F6F0739A430C6A8B682343A5
:100380000C6923434C6923438C692343CC69234381
:100390004C6A23438C6A23431A430260CB68436050
:1003A0000B6883604B68C36010BD2DE9F0410246C5
:1003B00000250026002000230024002791F803C018
:1003C0000CF00F0591F803C00CF0100CBCF1000FFD
:1003D00003D091F802C04CEA050591F800C0BCF1C9
:1003E000000F31D0146800202BE04FF0010C0CFA04
:1003F00000F3B1F800C00CEA03069E4220D183004E
:100400004FF00F0C0CFA03F7BC4305FA03FC4CEA5F
:10041000040491F803C0BCF1280F06D14FF0010C81
:100420000CFA00FCC2F814C00AE091F803C0BCF159
:10043000480F05D14FF0010C0CFA00FCC2F810C0B7
:10044000401C0828D1D31460B1F800C0BCF1FF0FE4
:1004500034DD546800202EE000F1080C4FF0010854
:1004600008FA0CF3B1F800C00CEA03069E4221D151
:1004700083004FF00F0C0CFA03F7BC4305FA03FCA2
:100480004CEA040491F803C0BCF1280F05D100F137
:10049000080C08FA0CF8C2F8148091F803C0BCF1FB
:1004A000480F07D100F1080C4FF0010808FA0CF8CA
:1004B000C2F81080401C0828CED35460BDE8F081FB
:1004C0000161704770B5002100230F22C47804B386
:1004D000154C246804F4E064C4F5E064210AC1F119
:1004E0000403CA40447804FA03F184781440214399
:1004F00009010E4C0678A155047804F01F0501246B
:10050000AC4005786D11AD0005F1E025C5F800415E
:1005100009E0047804F01F050124AC40044D06787E
:10052000761145F8264070BD0CED00E000E400E0D7
:1005300080E100E002490143024A11607047000077
:100540000000FA050CED00E010B500F023F800F013
:100550007FF810BD10B504467F220021204600F030
:1005600001F810BDF0B58B18DCB27F2C01DC072838
:1005700000DDF0BD002307E00025054E06EBC016A8
:100580005F18F5555D1CEBB29342F5DB00BFF0E759
:100590004C01002000200CE0002106E00022064B68
:1005A00003EBC0135A544A1CD1B28029F6DB421C1B
:1005B000D0B20828F0DB70474C01002038B501218B
:1005C000042000F08FF90121082000F08BF91020A1
:1005D0008DF8030003208DF80200002415E00C487C
:1005E00030F83400ADF80000094901EBC401486857
:1005F0006946FFF7DAFE064A32F8341002EBC4020D
:100600005068FFF75DFF601CC4B2032CE7DB38BD08
:10061000D414000810B50C4803C800F031F94FF4A9
:10062000967000F035FE084803C800F032F906481D
:100630004169006900F024F900221C21034800F000
:100640001DF8FFF781FF10BDD4140008EC1400085A
:1006500010B500240CE00021204600F02FF80649D8
:1006600001EBC4100122802100F008F8601CC4B224
:10067000082CF0DB10BD00004C0100202DE9F041FA
:1006800004460D4616462EB10B48C168806800F03E
:1006900000F904E00848C168806800F0F1F800271C
:1006A00006E02178022000F0D5FA641C781CC7B25D
:1006B000AF42F6DBBDE8F081D414000838B505463A
:1006C0000C4605F1B000C0B28DF8000004F0F00057
:1006D000102141EA20108DF8010004F00F008DF880
:1006E0000200002203216846FFF7C8FF38BD000062
:1006F000F0B504460D46012B02D0022B32D113E097
:1007000000200EE0A2F1200101EB4101174E06EBA3
:100710004101095C164E06EBC4162F18F155411C19
:10072000C8B20628EEDB1EE0002018E0002112E02F
:10073000A2F120060F4F07EB061601EBC007F65D8E
:100740000719DFF82CC00CEBC71705EB010C07F8F5
:100750000C604E1CF1B20829EADB411CC8B2022829
:10076000E4DB00E000BF00BFF0BD0000081500089A
:100770004C010020301700082DE9FE4380460E464C
:1007800014461F464FF00009002C16DA3B462D2276
:1007900031464046FFF7ACFF012F02D0022F07D1B0
:1007A00002E0B01DC6B204E006F10800C6B200E0E7
:1007B00000BF00BF4FF0010964424CB300200FE0BE
:1007C0000A2294FBF2F302FB134291B201F13002D0
:1007D000D2B20DF800200A2294FBF2F4401C00BFB4
:1007E000002CEDD100230146401E0DF80130C5B2AA
:1007F000002109E01DF801201DF800300DF801303E
:100800000DF80020401E491C421A002AF2DC06E0C6
:10081000012530208DF8000000208DF801003B46B6
:100820006A463146404600F008F8B9F1000F01D0A1
:10083000681CC5B22846BDE8FE832DE9F04180461C
:100840000E4614461F46002515E022787019C1B2E5
:100850003B464046FFF74CFF012F02D0022F07D145
:1008600002E0A81DC5B204E005F10800C5B200E031
:1008700000BF00BF641C20780028E6D1BDE8F081ED
:1008800003B501984069BDF800100843019948611B
:100890000CBD03B501980069BDF80010084301992B
:1008A00008610CBD29B1064A52690243044B5A61E2
:1008B00004E0034A52698243014B5A6170470000C9
:1008C0000010024029B1064AD2690243044BDA61A2
:1008D00004E0034AD2698243014BDA6170470000A9
:1008E0000010024029B1064A92690243044B9A6102
:1008F00004E0034A92698243014B9A617047000009
:100900000010024030B500210022002400232D4DAC
:100910006D6805F00C0121B1042905D0082923D107
:1009200005E0294D056022E0274D05601FE0254DBB
:100930006D6805F47012234D6D6805F4803402254E
:1009400005EB92421CB9214D554305600BE01D4D4E
:100950006D6805F400351DB11C4D5543056002E07E
:10096000194D5543056002E0174D056000BF00BFFB
:10097000144D6D6805F0F0010909154D6B5C0568B3
:10098000DD4045600F4D6D6805F4E061090A104DCA
:100990006B5C4568DD4085600A4D6D6805F460510B
:1009A000C90A0B4D6B5C4568DD40C560054D6D683F
:1009B00005F44041890B074D6B5CC568B5FBF3F549
:1009C000056130BD0010024000127A0000093D00B0
:1009D000B4000020C400002001460020034A5068F3
:1009E00020F4E060084350607047000000100240AF
:1009F00010B5421E02EB4212104B9A5C202A16DA06
:100A0000421E02EB42121344421E02EB42120B4CF6
:100A1000A25C521C9954421E02EB421223469A5C7D
:100A2000521CD3B2421E02EB4212A35405E0212312
:100A3000421E02EB4212014CA35410BDC80000201C
:100A400021B1028842F40052028004E002884DF68F
:100A5000FF731A400280704721B1028842F04002C1
:100A6000028004E002884FF6BF731A40028070478C
:100A700000B585B001210803FFF734FF0121880389
:100A8000FFF720FF2020ADF80C000020ADF8080093
:100A9000ADF806000720ADF810000020ADF8040006
:100AA000ADF80000ADF80E004FF48270ADF8020012
:100AB0004FF40070ADF80A0069461D4800F076F862
:100AC0000020ADF80C000120ADF808000220ADF8C0
:100AD00006000720ADF810000020ADF804004FF428
:100AE0004040ADF800000020ADF80E004FF48270D9
:100AF000ADF802004FF40070ADF80A0069460D48E9
:100B000000F054F800210B48FFF79AFF0121084834
:100B1000FFF7A2FF01210748FFF79EFFFF210120F9
:100B200000F062F8FF21022000F05EF805B000BD81
:100B3000003001400038004038B501210420FFF7A3
:100B4000D1FE01210820FFF7CDFE18208DF803000B
:100B500003208DF80200002415E00C4830F8340022
:100B6000ADF80000094901EBC40148686946FFF788
:100B70001CFC064A32F8341002EBC4025068FFF73E
:100B80009FFC601CC4B2052CE7DB38BD201D0008AB
:100B90000246002013890B400BB1012000E0002029
:100BA00070470146888970478181704710B50022DF
:100BB000028802F441520B884C8823438C882343DB
:100BC000CC8823430C8923434C8923438C892343BA
:100BD000CC8923431A430280838B4FF2FF74234056
:100BE00083830B8A038210BD70B504460E46002530
:100BF00005E0681CC5B2C82D01DD002070BD611E76
:100C0000134A52F821000221FFF7C2FF0028F0D05A
:100C1000611E0F4A52F821003146FFF7C5FF00253B
:100C200005E0681CC5B2C82D01DD0020E6E7611EA5
:100C3000074A52F821000121FFF7AAFF0028F0D04F
:100C4000611E034A52F82100FFF7ABFFC0B2D5E79F
:100C50006C00002070B504460E46002505E0681CB7
:100C6000C5B2C82D01DD012070BD611E084A52F8D1
:100C700021000221FFF78CFF0028F0D0611E044AFA
:100C800052F821003146FFF78FFF0020ECE700000B
:100C90006C00002010B500F001F810BD0CB500206C
:100CA000019000903348006840F48030314908607A
:100CB00000BF3048006800F4003000900198401CEC
:100CC0000190009818B90198B0F5A06FF1D12948AA
:100CD000006800F4003010B10120009001E0002015
:100CE00000900098012843D12348006840F010008C
:100CF000214908600846006820F0030008600846A3
:100D0000006840F0020008601A48406819494860CD
:100D10000846406848600846406840F48060486083
:100D20000846406820F47C1048600846406840F45B
:100D3000E81048600846006840F08070086000BF16
:100D40000C48006800F000700028F9D0094840689D
:100D500020F00300074948600846406840F0020060
:100D6000486000BF0348406800F00C000828F9D133
:100D70000CBD0000001002400020024010B51348D6
:100D8000006840F0010011490860084640681049B9
:100D900008400E494860084600680E4908400B4963
:100DA00008600846006820F4802008600846406813
:100DB00020F4FE0048604FF41F008860FFF76AFFD0
:100DC0004FF000600449086010BD000000100240B0
:100DD0000000FFF8FFFFF6FE08ED00E010B540F25E
:100DE0002551094800F000F901280CD1064800F00F
:100DF000E7F9C4B221460120FFF7FAFD40F2255180
:100E0000014800F01BF810BD0038014010B540F259
:100E10002551094800F0E8F801280CD1064800F0F7
:100E2000CFF9C4B221460220FFF7E2FD40F225517E
:100E3000014800F003F810BD0044004010B5002246
:100E4000002340F66A14A14200D100BF0A12012417
:100E50009440A3B2DC43048010BD21B1828942F4E6
:100E60000052828104E082894DF6FF731A4082812C
:100E7000704700001FB501218803FFF733FD0121F2
:100E80004804FFF71FFD4FF4E13000900020ADF85B
:100E90000C000C20ADF80A000020ADF80800ADF8F9
:100EA0000600ADF80400002407E0054951F82400CD
:100EB000694600F0E9F8601CC4B2022CF5DB1FBDE6
:100EC0005C0000201AB1838A0B43838202E0838A8C
:100ED0008B4383827047000010B58CB00121084617
:100EE000FFF7E0FC002004901020039000200B90FE
:100EF00008908020069000200990079005904FF4FC
:100F000080500A9000241CE0214850F82400001D65
:100F1000019004EB44101F490844401C02901E49F4
:100F200051F8240001A9FFF722FA194951F82400C9
:100F300001228021FFF7C6FF0220FFF7DDF9601CC8
:100F4000C4B2022CE0DB01208DF8030008208DF8EC
:100F5000010000208DF802000E208DF80000684688
:100F6000FFF7B0FA11208DF800006846FFF7AAFAE3
:100F7000002408E0084951F8240001220221FFF76B
:100F8000EDF9601CC4B2022CF4DB0CB010BD000003
:100F90005C0000200A0100206400002008B5012147
:100FA0000420FFF79FFC01210820FFF79BFC18207D
:100FB0008DF8030003208DF802004FF40170ADF8A6
:100FC000000069460748FFF7F0F904208DF8030098
:100FD0004FF48160ADF8000069460248FFF7E5F97B
:100FE00008BD00000008014070B50246002400233F
:100FF0000025002040F66A16B14200D100BFC1F3BF
:10100000421501F01F03012606FA03F3012D02D158
:101010009689334006E0022D02D1168A334001E062
:10102000968A33400C12012606FA04F416883440DE
:1010300013B10CB1012000E0002070BDF0B50346F3
:10104000002400260025002040F66A17B94200D18E
:1010500000BF1846C1F3421401F01F06012707FA2A
:1010600006F5012C01D10C3004E0022C01D1103026
:1010700000E014301AB107682F43076002E00768E8
:10108000AF430760F0BD00002DE9F04786B005468C
:101090000E460024A24600BFA1460027B08900B139
:1010A00000BF2F462C8A4CF6FF700440F0880443A2
:1010B0002C82AC894EF6F3100440B0883189084385
:1010C000718908430443AC81AC8A4FF6FF40044069
:1010D000B0890443AC8201A8FFF714FC1F48874283
:1010E00002D1DDF810A001E0DDF80CA0A88900F421
:1010F000004040B10AEBCA0000EB0A103168490019
:10110000B0FBF1F807E00AEBCA0000EB0A10316807
:101110008900B0FBF1F86420B8FBF0F0040120096D
:10112000642101FB1089A88900F4004040B13220FD
:1011300000EBC900B0FBF1F000F00700044308E049
:10114000322000EB09106421B0FBF1F000F00F0039
:1011500004432C8106B0BDE8F08700000038014050
:1011600008B501208DF803008DF8010000208DF8EE
:10117000020025208DF800006846FFF7A3F926201D
:101180008DF800006846FFF79DF9012240F22551D5
:101190000948FFF753FF012240F225510748FFF7A6
:1011A0004DFF40F225510448FFF748FE40F225511B
:1011B0000248FFF743FE08BD0038014000440040EC
:1011C00001468888C0F30800704700000022411ED5
:1011D00001EB4111014B5A54704700000A010020F5
:1011E00002E008C8121F08C1002AFAD170477047F0
:1011F000002001E001C1121F002AFBD1704700004E
:101200004FF44070FFF796F94FF48060FFF7E4FB6E
:10121000FFF710F8FFF708F8FEF7E4FFFEF7FEFF10
:1012200001230E4A00210846FFF707FBFFF710FADB
:10123000002411E00120FFF78DF92246611C8CB2D9
:10124000012300211846FFF797FAFFF70BF8FFF785
:10125000FFF9642000F01CF8ECE7000044000020D7
:1012600009480068006808B9012000E0002020B1AA
:101270004FF0FF300549086005E003480068C0688A
:10128000006802490860704778000020A400002030
:1012900000B5034604E04FF47A7000F004F85B1EDA
:1012A000002BF8D100BD06E0102101E04A1E91B2EA
:1012B0000029FBD1401E0028F6D1704701460A697B
:1012C000D1E901309860D1E9010358605068884243
:1012D00001D188685060002008611068401E1060CD
:1012E0001068704742684A6093688B6093685960E1
:1012F0009160086103685B1C0360704712480068D6
:1013000018B10120114908601DE000200F49086054
:101310000F480068B0FA80F0C0F11F0101EB8102B4
:101320000C4B03EB820042685268426000F10802F5
:101330004368934202D14268526842604268D26870
:10134000054B1A6000BF7047B000002098000020D5
:101350008C0000204C0500207400002010B500BF58
:10136000BF2080F31188BFF34F8FBFF36F8F00BF93
:1013700000F00EF818B14FF080500449086000BF2B
:10138000002080F3118800BF10BD000004ED00E0D4
:101390002DE9F04100273A480068002867D1394814
:1013A0000068451C374805608DB93748D0F8008083
:1013B00036480068344908603448C0F80080344832
:1013C0000068401C32490860FFF74AFF00BF3148FF
:1013D000006885423BD300BF2B480068006808B90D
:1013E000012000E0002020B14FF0FF3029490860C3
:1013F0002CE025480068C068C4686668B54202D21F
:101400002448066022E0201DFFF758FFA06A18B1AB
:1014100004F11800FFF752FF94F82C1001208840C7
:101420001D49096808431C490860E16A01EB810114
:101430001A4A02EB8100211DFFF754FF1849E06AA8
:101440000968C96A8842C7D30127C5E700BF1448A5
:101450000068C06A00EB8000104951F820000128A4
:1014600000D901270F48006800B1012704E00E48A9
:101470000068401C0C4908603846BDE8F081000057
:10148000B000002088000020780000207C000020B0
:101490009C000020A40000208C0000204C050020AF
:1014A000740000209800002094000020200000001C
:1014B00000080140400000000008014080000000DA
:1014C0000008014000200000000C014000800000E6
:1014D000000C014000100000000C01400040000022
:1014E000000C01400001000000080140AE00104067
:1014F00081CFA1C8A6A83FD300D580D9F1DA12DBED
:101500004020028D14A4A6AF0000000000000000DF
:10151000002F000000000700070000147F147F1454
:1015200000242A7F2A1200626408132300364955DA
:10153000225000000503000000001C2241000000B2
:1015400041221C000014083E08140008083E080848
:10155000000000A0600000080808080800006060A3
:101560000000002010080402003E5149453E0000E2
:10157000427F4000004261514946002141454B31C4
:10158000001814127F10002745454539003C4A4990
:101590004930000171090503003649494936000602
:1015A0004949291E0000363600000000563600006A
:1015B00000081422410000141414141400004122E5
:1015C000140800020151090600324959513E007CBD
:1015D0001211127C007F49494936003E41414122A7
:1015E000007F4141221C007F49494941007F090990
:1015F0000901003E4149497A007F0808087F000040
:10160000417F4100002040413F01007F08142241FA
:10161000007F40404040007F020C027F007F0408B2
:10162000107F003E4141413E007F09090906003E0E
:101630004151215E007F0919294600464949493137
:101640000001017F0101003F4040403F001F20405A
:10165000201F003F4038403F006314081463000718
:101660000870080700615149454300007F4141006F
:1016700000552A552A55000041417F00000402010F
:1016800002040040404040400000010204000020ED
:1016900054545478007F484444380038444444202B
:1016A00000384444487F00385454541800087E09D8
:1016B00001020018A4A4A47C007F080404780000A0
:1016C000447D4000004080847D00007F102844005D
:1016D0000000417F4000007C04180478007C08046E
:1016E000047800384444443800FC242424180018AA
:1016F000242418FC007C0804040800485454542096
:1017000000043F444020003C4040207C001C20401E
:10171000201C003C4030403C004428102844001C61
:10172000A0A0A07C004464544C4414141414141459
:1017300000000000000000000000000000000000A9
:10174000000000F80000000000000033000000006E
:1017500000100C02100C020000000000000000004D
:101760000040C07840C0780000043F04043F0400FB
:1017700000708888FC08300000182020FF211E001F
:10178000F008F0806018000000310C031E211E00DC
:1017900000F00888700000001E21232C192721105A
:1017A00000120E0000000000000000000000000019
:1017B000000000E0180402000000000718204000AC
:1017C00000020418E000000000402018070000009C
:1017D000404080F0804040000202010F0102020000
:1017E00000000000E0000000000101010F01010104
:1017F00000000000000000000090700000000000E9
:1018000000000000000000000001010101010100D2
:101810000000000000000000003030000000000068
:1018200000000000C038040000601807000000003D
:1018300000E010080810E000000F102020100F003A
:1018400000001010F8000000000020203F202000C1
:10185000007008080808F000003028242221300019
:1018600000300808088870000018202121221C0080
:101870000000804030F8000000060524243F2424A6
:1018800000F88888880808000019202020110E0020
:1018900000E0108888900000000F112020201F0019
:1018A00000180808886818000000003E01000000C9
:1018B0000070880808887000001C222121221C006A
:1018C00000F008080810E0000001122222110F00A9
:1018D000000000C0C0000000000000303000000028
:1018E0000000008000000000000000E00000000098
:1018F00000008040201008000001020408102000B1
:10190000004040404040400000020202020202004B
:101910000008102040800000002010080402010090
:101920000070480808887000000000303700000090
:10193000C030C828E810E000071827282F28170013
:101940000000C038E0000000203C230202273820BD
:1019500008F8888888700000203F202020110E00A1
:10196000C030080808083800071820202010080098
:1019700008F808080810E000203F202020100F0081
:1019800008F88888E8081000203F2020232018004D
:1019900008F88888E8081000203F200003000000B5
:1019A000C03008080838000007182020221E020056
:1019B00008F808000008F808203F210101213F2015
:1019C000000808F8080800000020203F2020000040
:1019D00000000808F8080800C08080807F00000030
:1019E00008F888C028180800203F20012638200069
:1019F00008F8080000000000203F202020203000D0
:101A000008F8F800F8F80800203F013E013F2000E8
:101A100008F830C00008F808203F200007183F00F1
:101A2000E01008080810E0000F10202020100F0020
:101A300008F808080808F000203F21010101000013
:101A4000E01008080810E0000F10282830504F0060
:101A500008F8888888887000203F2000030C302018
:101A600000708808080838000038202121221C0056
:101A7000180808F8080818000000203F200000009F
:101A800008F808000008F808001F202020201F0088
:101A90000878880000C83808000007380E010000E8
:101AA00008F800F800F8080000033E013E030000BB
:101AB000081868808068180820302C03032C302018
:101AC0000838C800C83808000000203F2000000087
:101AD00010080808C83808002038262120201800DF
:101AE000000000FE020202000000007F40404000B3
:101AF000000438C000000000000000010638C000EB
:101B000000020202FE000000004040407F00000092
:101B100000000402020400000000000000000000B9
:101B200000000000000000008080808080808080B5
:101B3000000202040000000000000000000000009D
:101B4000000080808000000000192424123F200043
:101B500010F0008080000000003F112020110E00D6
:101B60000000008080800000000E11202020110065
:101B7000000080808090F000001F202020103F2077
:101B80000000808080800000001F2424242417008F
:101B9000008080E0909020000020203F2020000066
:101BA0000000808080808000006B9494949360009B
:101BB00010F0008080800000203F210000203F20A6
:101BC00000809898000000000020203F20200000A6
:101BD000000000809898000000C08080807F000096
:101BE00010F0000080808000203F24062930200073
:101BF000001010F8000000000020203F202000000E
:101C00008080808080808000203F20003F20003F37
:101C10008080008080800000203F210000203F2045
:101C20000000808080800000001F202020201F00F6
:101C3000808000808000000080FF912020110E0035
:101C40000000008080008000000E11202091FF80A5
:101C5000808080008080800020203F2120000100C3
:101C60000000808080808000003324242424190018
:101C7000008080E0808000000000001F2020100015
:101C80008080000000808000001F202020103F2066
:101C9000808080008080800000030C300C030000F6
:101CA0008080008080008080010E300C07380601A3
:101CB00000808080008080000020310E2E312000C6
:101CC0008080800000808080008186781806010076
:101CD00000808080808080000021302C2221300014
:101CE0000000000000FC020200000000013E404035
:101CF00000000000FF00000000000000FF000000E6
:101D00000202FC000000000040403E010000000014
:101D100000020102020402000000000000000000B6
:101D200020000000000801404000000000080140C1
:101D3000800000000008014000200000000C01406D
:101D400000800000000C0140681D00080000002019
:101D5000C8000000E0110008301E0008C800002084
:101D600050090000F0110008003801400044004014
:101D70004400024080000240003001400038004032
:101D80000000000000000000000000000000000053
:101D90000000000000000000000000000000000043
:101DA00000000000000000000000807F6E524632FC
:101DB000344C303120526570616C6365205465731A
:101DC000740000000038014000440040440002401C
:101DD0008000024000300140003800400000000058
:101DE00000000000000000000000000000000000F3
:101DF00000000000000000000000000000000000E3
:101E000000000000000000000000000000000000D2
:101E100000000000040000000000000000000000BE
:101E2000010203040102030406070809020406086C
:04000005080000ED02
:00000001FF
