:020000040800F2
:10000000003100209D0100080B110008E9100008D4
:10001000071100088D080008571D000800000000A7
:1000200000000000000000000000000005010008C2
:10003000AB09000800000000490100085918000839
:10004000B7010008B7010008B7010008B7010008B0
:10005000B7010008B7010008B7010008B7010008A0
:10006000B7010008B7010008B7010008B701000890
:10007000B7010008B701000891080008B70100089F
:10008000B7010008C5080008B7010008B70100085B
:10009000B7010008B7010008B7010008AD09000862
:1000A000B7010008B7010008B7010008B701000850
:1000B000B7010008B7010008B7010008B701000840
:1000C000B7010008B7010008B7010008B701000830
:1000D000B7010008E518000815190008B701000865
:1000E000B7010008B7010008B7010008DFF810D019
:1000F00000F0EEF900480047C5200008AFF300808B
:1001000000310020224B19680868B0E8F00F80F336
:100110000988BFF36F8F4FF0000080F311884EF015
:100120000D0E70470000000006480068006880F36C
:10013000088862B661B6BFF34F8FBFF36F8F00DFE1
:1001400000BF00BF08ED00E0EFF30980BFF36F8F41
:100150000F4B1A6820E9F00F106008B54FF0BF0090
:1001600080F31188BFF34F8FBFF36F8F03F016FA40
:100170004FF0000080F31188BDE808401968086856
:10018000B0E8F00F80F30988BFF36F8F704700BFAE
:1001900088010020EFF30580704700000648804783
:1001A00006480047FEE7FEE7FEE7FEE7FEE7FEE75C
:1001B000FEE7FEE7FEE7FEE769180008ED0000082D
:1001C00040EA01039B0703D009E008C9121F08C0D9
:1001D000042AFAD203E011F8013B00F8013B521E59
:1001E000F9D27047D2B201E000F8012B491EFBD2D0
:1001F00070470022F6E710B513460A460446194632
:10020000FFF7F0FF204610BD421C10F8011B00292B
:10021000FBD1801A7047F0B480EA0102D40F42008B
:10022000B2EB410F02D20246084611464A0042D0C4
:10023000C30DDDB2C1F3C752AD1A202D35DAC1F3BB
:10024000160141F4000204B15242C5F1200602FA3F
:1002500006F12A411044B3EBD05F23D0C4B1012D85
:10026000A0EBC35009DCF0BC4FF0004202EAC352DD
:10027000DBB200F5000000F0FCB8400000F1807037
:1002800000EBC350A0F1807040EAD170490009E052
:10029000490841EAC071A0EBC35000F500004008D6
:1002A00000EBC350F0BC00F0DBB86142012202EB6E
:1002B0004101001BF6E7F0BC704781F00041AAE75E
:1002C00080F00040A7E780EA010210B502F0004389
:1002D000400022D04A001FD0010E01EB1261C0F392
:1002E0005600C2F3560240F4000042F40002A0FBA4
:1002F000022000047F39140400D0401C50EA124050
:1003000001D44000491EC2B20C0604EBD010401CC0
:100310004008802A02D003E0002010BD20F0010038
:10032000002900DA0020184310BD30B480EA010231
:1003300002F0004530F0004221F0004013D090B1AF
:10034000C30DD40DC2F31601C0F31600E41A41F434
:10035000000140F400027D34914201D3641C00E0AE
:100360004900002C02DA30BC002070474FF4000036
:100370000023914201D3891A034340084FEA410107
:10038000F7D151B1914202D14FF0004105E002D2C4
:100390004FF0010101E06FF0010103EBC45028446C
:1003A00030BC00F05DB896230022114600F061B821
:1003B00000F0004220F00040C10DC0F3160040F4F0
:1003C00000007F2901DA00207047962903DCC1F183
:1003D0009601C84001E096398840002AF4D0404296
:1003E000704720F00040C10DC0F3160040F400003B
:1003F0007F2901DA00207047962903DCC1F19601BC
:10040000C84070479639884070470000002801DBDB
:10041000C0F10040002901DBC1F100418142704779
:10042000002801DBC0F10040002901DBC1F10041DF
:100430008842704730B50B46014600202022012437
:1004400009E021FA02F59D4205D303FA02F5491BA2
:1004500004FA02F52844151EA2F10102F1DC30BDB8
:100460000029A8BF7047401C490008BF20F00100C8
:10047000704710B4B0FA80FC00FA0CF050EA0104A6
:1004800004BF10BC704749B1CCF1200421FA04F438
:1004900011FA0CF118BF012121430843A3EB0C0111
:1004A000CB1D4FEA00614FEA102042BF002010BC74
:1004B000704700EBC35010440029A4BF10BC704724
:1004C000401C490008BF20F0010010BC704700002C
:1004D000064C074D06E0E06840F0010394E8070091
:1004E00098471034AC42F6D3FFF704FEC44200082C
:1004F000E442000870B58C1810F8015B15F0070392
:1005000001D110F8013B2A1106D110F8012B03E0AC
:1005100010F8016B01F8016B5B1EF9D12B0705D4B4
:100520000023521E0DD401F8013BFAE710F8013BFD
:10053000CB1A921C03E013F8015B01F8015B521E19
:10054000F9D5A142D8D3002070BD21B1826842F014
:100550000102826003E0826822F00102826070473B
:1005600000B585B00121480200F046FE4FF400407E
:1005700000F016FE00208DF8050003904FF4602077
:1005800002900020009001208DF8100000208DF8CE
:10059000040069460D4800F055F801210B48FFF7AB
:1005A000D4FF0A4800F0FAF800BF084800F03FF80E
:1005B0000028FAD1054800F001F900BF034800F017
:1005C00036F80028FAD105B000BD00000024014033
:1005D00038B50121042000F00FFE0121082000F0B1
:1005E0000BFE00208DF8030000240DE0084830F8D1
:1005F0003400ADF80000064901EBC40148686946C3
:1006000000F07EFA601CC4B2052CEFDB38BD0000A0
:10061000244200080146C86C80B2704702460020A0
:1006200013680B400BB1012000E000207047014629
:1006300000208A6802F008020AB1012000E00020D0
:100640007047000030B502460020002350680F4C70
:1006500020400D790C6844EA0524204350609068DE
:100660000B4C2040D1E902542C434D7944EA450417
:1006700020439060D06A20F470000C7C641EE4B2C9
:10068000234340EA0350D06230BD0000FFFEF0FF7C
:10069000FDF7F1FF70B504460021104800F083F823
:1006A0000F48015D022301220C4800F01BF80121D4
:1006B0000A4800F078F800BF02210848FFF7AEFFB3
:1006C0000028F9D00548FFF7A5FF0646FFF76BFEA7
:1006D00005464FF08B41FFF728FE70BD0024014016
:1006E0004C420008F0B504460D4600200021092DBB
:1006F00011DDE068A5F10A0606EB4607072606FAB3
:1007000007F18843A5F10A0606EB460603FA06F14F
:100710000843E0600CE0206905EB4507072606FA70
:1007200007F1884305EB450603FA06F1084320610B
:10073000072A0FDA606B561E06EB86071F2606FA9D
:1007400007F18843561E06EB860605FA06F10843B4
:10075000606322E00D2A0FDA206BD61F06EB8607B6
:100760001F2606FA07F18843D61F06EB860605FA10
:1007700006F10843206310E0E06AA2F10D0606EBE3
:1007800086071F2606FA07F18843A2F10D0606EB3D
:10079000860605FA06F10843E062F0BD816841F083
:1007A00008018160704721B1826842F4A002826032
:1007B00003E0826822F4A00282607047816841F001
:1007C00004018160704770B504462046FFF71CFDA8
:1007D000C5B2002004E0FF212A18A154411CC8B270
:1007E0000328F8DBE81CC0B270BD10B5FFF7F0FEBF
:1007F000FFF7B6FE10BD000008B50121402000F053
:10080000FBFC48208DF803007820ADF80000694615
:10081000014800F075F908BD000C014008B5012140
:10082000042000F0E9FC10208DF80300C002ADF8B0
:10083000000003208DF802006946064800F060F9C8
:1008400005484068C0680449098808430249496866
:10085000C86008BD000801405442000810B501F00E
:100860002FF901F095F801F009FA01F0C3F800241E
:1008700007E0054951F82400012101F07CF8601CD3
:10088000C4B2022CF5DB10BDC400002000BFFEE79F
:1008900010B54FF4005000F04BF801280ED101F0D4
:1008A00013F80748006800684FF6FE7108400449D5
:1008B000096808604FF4005000F02CF810BD0000EB
:1008C000CC00002010B54FF0007000F031F8012886
:1008D0000FD1022000F0F8FF0648406800684FF68C
:1008E000FE7108400349496808604FF0007000F04D
:1008F00011F810BDCC00002000F0805111B1034967
:10090000086001E0024948607047000004040240AA
:100910000000024000F0805111B10349086001E07D
:100920000249486070470000040402400000024091
:1009300001460020002201F0805313B1054B1A68D4
:1009400001E0054B1A6802EA01030BB1012000E047
:100950000020704700040240000002401AB1036802
:100960000B43036002E003688B430360704710B5DC
:100970000022026847F6F0739A430C6A8B6823439F
:100980000C6923434C6923438C692343CC6923437B
:100990004C6A23438C6A23431A430260CB6843604A
:1009A0000B6883604B68C36010BD704708B50020BA
:1009B00000904FF4807000F025F8012817D1000254
:1009C00000F01AF803F052F9012810D069460848DF
:1009D000006802F05BFF00BF009838B14FF0805014
:1009E00004490860BFF34F8FBFF36F8F00BF08BD8E
:1009F0006000002004ED00E001490860704700003D
:100A000014040140014600200022074B1B6803EA42
:100A10000102054B14331B680B4013B10AB10120CE
:100A200000E000207047000000040140002123493D
:100A30008279002A3AD00A46126803689A430B4624
:100A40001A600A1D126803689A430B1D1A60027926
:100A500011440A6803681A430A60184A0832126887
:100A600003689A43154B08331A601A1D126803680D
:100A70009A43124B0C331A604279102A0ED11A1F76
:100A8000126803681A430D4B08331A601A1D126866
:100A900003681A43094B0C331A600DE00749427989
:100AA00011440A6803681A430A6005E00279114498
:100AB0000A6803689A430A60704700000004014016
:100AC00030B500228B071C0F0F2303FA04F20B4BE7
:100AD0008C1053F824309343084C8D1044F8253083
:100AE00023468C1053F824308C07240F00FA04F4AA
:100AF0002343024C8D1044F8253030BD08000140DE
:100B00002DE9F041024600250026002000230024A4
:100B1000002791F803C00CF00F0591F803C00CF00A
:100B2000100CBCF1000F03D091F802C04CEA05058F
:100B300091F800C0BCF1000F31D0146800202BE008
:100B40004FF0010C0CFA00F3B1F800C00CEA0306F8
:100B50009E4220D183004FF00F0C0CFA03F7BC43E8
:100B600005FA03FC4CEA040491F803C0BCF1280F19
:100B700006D14FF0010C0CFA00FCC2F814C00AE0D8
:100B800091F803C0BCF1480F05D14FF0010C0CFAED
:100B900000FCC2F810C0401C0828D1D31460B1F882
:100BA00000C0BCF1FF0F34DD546800202EE000F1DE
:100BB000080C4FF0010808FA0CF3B1F800C00CEA79
:100BC00003069E4221D183004FF00F0C0CFA03F76D
:100BD000BC4305FA03FC4CEA040491F803C0BCF1E1
:100BE000280F05D100F1080C08FA0CF8C2F814809F
:100BF00091F803C0BCF1480F07D100F1080C4FF089
:100C0000010808FA0CF8C2F81080401C0828CED35E
:100C10005460BDE8F0810000F0B50A4600230024CE
:100C20000021002500F00046B6F1004F02D11D4E14
:100C3000F16901E01B4E7168C0F3034583B200F413
:100C40004016B6F5401F08D121F07061154E766848
:100C500026F07066134F7E6012E000F48016B6F541
:100C6000801F06D1032606FA05F4A14341F0706106
:100C700006E0460D360103FA06F6B14341F0706115
:100C800022B1460D360103FA06F6314300F0004664
:100C9000B6F1004F02D1034EF16101E0014E7160E7
:100CA000F0BD0000000001401FB500240B480368A0
:100CB0000B480CA10268684601F0FEF86846FFF791
:100CC00082FD044600BF22466946022001F05EF81C
:100CD0000028F8D1064908801FBD0000D800002078
:100CE000DC00002025732E25733D22220000000029
:100CF000040100202DE9F041022001F03DF80678C2
:100D0000022001F039F8441CFF25002006E0215C98
:100D1000ED2901D1054603E0411CC8B2B042F6DB23
:100D200000BFFF2D02D10020BDE8F081294602203E
:100D300000F0D4FF022001F01FF801786078401C19
:100D4000814206DCA7786178022000F0C7FF3846B0
:100D5000EAE70020E8E7000030B58DB00446002542
:100D60001A48009403681A481AA1026801A801F001
:100D7000A3F801A8FFF727FD054600BF2A4601A9F1
:100D8000022001F003F80028F8D11648008810303E
:100D90001449088008460088402815DD102000907E
:100DA000114803680A4811A1026801A801F084F8FB
:100DB00001A8FFF708FD054600BF2A4601A9022049
:100DC00000F0E4FF0028F8D10DB030BDD8000020BD
:100DD000DC00002025732E25732B3D2225735C72C9
:100DE0002200000004010020E000002025732E25D1
:100DF000732B3D25640000001FB50A4B0FCB8DE817
:100E00000F006846FFF7DFFC0446224669460220D1
:100E100000F0BCFF4FF47A7002F0ECF800200249B9
:100E200008801FBD84420008040100202DE9F04124
:100E30008EB005460C4610492846FFF744FA804616
:100E4000FFF7B6FA07B20D48009750F824200C4877
:100E50000CA1036802A801F02FF802A8FFF7B3FC69
:100E6000064600BF324602A9022000F08FFF00288C
:100E7000F8D10EB0BDE8F08100002041F400002060
:100E8000E400002025732E25733D2564000000003A
:100E900070B58EB004460D460B48009450F82520DE
:100EA0000A480BA1036802A801F006F802A8FFF7A0
:100EB0008AFC064600BF324602A9022000F066FF07
:100EC0000028F8D10EB070BDE8000020E40000203A
:100ED00025732E25733D25640000000008B50546E6
:100EE00002F0D4FE009028784FF47A7191FBF0F074
:100EF000C0F34F0650E029490978A1F132000021E2
:100F0000FFF7C6FF25494978A1F132000121FFF71B
:100F1000BFFF2349097848000221FFF7B9FF0024E9
:100F200007E0204951F824002146FFF77FFF601CAD
:100F3000C4B2032CF5DB03211B480068FFF776FFE2
:100F4000FFF7D8FE012806D002280BD0032810D0C6
:100F500004281CD114E01548007840F00100134922
:100F6000087014E01148007820F001000F49087063
:100F70000DE00E48007840F002000C49087006E0D1
:100F80000A48007820F002000849087000BF00BF3E
:100F90003146684602F030FEADE7000078000020E0
:100FA0007000002028020020740000207C00002037
:100FB00008B5012000F0E0FE044676E020780A281B
:100FC00070DD3A48006802F0F3F83948006802F032
:100FD000EFF83848006802F0EBF83748006802F094
:100FE000E7F83648006802F0E3F8FFF75DFE34A04A
:100FF000FFF7B2FE4FF4FA7001F0FCFF0021374812
:1010000000F0B9FC0021364800F0B5FC02F05CF8B5
:1010100010208DF8030003208DF802004FF40170BA
:10102000ADF8000069462F48FFF76AFD04208DF8EF
:1010300003004FF48160ADF8000069462948FFF7CE
:101040005FFD2DE027480830006800F4806040B163
:1010500024480C30006840F0040022490C3108603C
:1010600007E020480C30006820F004001D490C31D6
:1010700008601C480830006800F0080040B11948BA
:101080000C30006840F4007016490C31086007E02D
:1010900014480C30006820F4007012490C310860CC
:1010A000D0E7FFE7192002F069F887E74800002041
:1010B0004C00002050000020540000205800002068
:1010C000E8BF9BE585A5E4B8B2E58FA3E58D87E78A
:1010D000BAA7E6A8A1E5BC8F0000000000380140D7
:1010E000004400400008014000BFFEE710B5034681
:1010F0008B4207D0002003E01C5C0C54441CE0B27F
:101100009042F9DB10BD00BFFEE7704770B50021CB
:1011100000230F22C47804B3154C246804F4E0645F
:10112000C4F5E064210AC1F10403CA40447804FA1A
:1011300003F184781440214309010E4C0678A1552F
:10114000047804F01F050124AC4005786D11AD0052
:1011500005F1E025C5F8004109E0047804F01F0519
:101160000124AC40044D0678761145F8264070BD48
:101170000CED00E000E400E080E100E00249014302
:10118000024A1160704700000000FA050CED00E013
:1011900010B5E12001F006FA01F0BAF910BD000027
:1011A00001460020034A506820F440400843506044
:1011B000704700000010024029B1064A52690243FC
:1011C000044B5A6104E0034A52698243014B5A615D
:1011D000704700000010024029B1064AD26902435C
:1011E000044BDA6104E0034AD2698243014BDA61BD
:1011F000704700000010024029B1064A926902437C
:10120000044B9A6104E0034A92698243014B9A615C
:10121000704700000010024030B500210022002479
:1012200000232D4D6D6805F00C0121B1042905D076
:10123000082923D105E0294D056022E0274D0560EE
:101240001FE0254D6D6805F47012234D6D6805F49F
:101250008034022505EB92421CB9214D55430560AF
:101260000BE01D4D6D6805F400351DB11C4D554357
:10127000056002E0194D5543056002E0174D056019
:1012800000BF00BF144D6D6805F0F0010909154D50
:101290006B5C0568DD4045600F4D6D6805F4E061ED
:1012A000090A104D6B5C4568DD4085600A4D6D682C
:1012B00005F46051C90A0B4D6B5C4568DD40C560A3
:1012C000054D6D6805F44041890B074D6B5CC568A1
:1012D000B5FBF3F5056130BD0010024000127A0045
:1012E00000093D0074010020840100201CB5044663
:1012F00003220021012002F0C6F9314908600322CF
:101300000021012002F0BFF92E49086000220121CE
:10131000084602F0B8F92C490860012002F0A2F951
:101320002A4908602A480B212A4B4FF40072CDE964
:10133000001029A12A4802F02FFC2A4808212A4B34
:101340002022CDE9001029A1294802F025FC2948D6
:101350000D2100234822CDE9001027A1284802F0E2
:101360001BFC28480C2100234022CDE9001026A1B7
:10137000284802F011FC28480921284B4FF48072BC
:10138000CDE9001026A1294802F006FC28480D21CD
:10139000224B4022CDE9001021A1264802F0FCFB9F
:1013A000FFF782FC24A0FFF7D7FC012000F0CAFA67
:1013B000022000F0C7FA002001F0FAFE1CBD000078
:1013C0006000002064000020680000206C00002005
:1013D000480000203E0000205243207461736B00DF
:1013E0004D140008540000203F000020524B000024
:1013F000C51500084C0000204E49207461736B0035
:10140000C923000850000020554642207461736BC8
:1014100000000000F11D00085800002040000020DE
:10142000484D49207461736B00000000DD0E000818
:101430005C000020B10F0008E7B3BBE7BB9FE68864
:1014400090E58A9FE590AFE58AA8000088B0044641
:1014500020784FF47A7191FBF0F0C0F34F0500F063
:1014600055FF8046002001900026002702F00EFC68
:1014700000908BE001208DF8180004220DF11A0174
:101480004348FFF733FE434800788DF81E002021C3
:1014900006A801F05DF820E03F48006802F00AF875
:1014A000E021072001F00AF94FF48070FFF7A4FA59
:1014B00000F030FF394800F0B3FE3748006801F013
:1014C0006DFF202106A801F043F802F0DFFB009039
:1014D000002007460646324908702A4601A93148CD
:1014E000006802F00FFA0028D6D0701CC6B22E4851
:1014F0000088401C2C4908809DF8040000283AD040
:101500002A480088401C2949088029462848006844
:1015100002F07AFA78B327480088401C25490880F1
:10152000781CC7B202212448006802F06DFA012835
:101530000BD1102202A94046FFF7D8FD00231A461E
:1015400019461D48006802F015F900211A48006884
:1015500002F05AFA01280BD10C22184903A8FFF710
:10156000C5FD00231A4619461348006802F002F927
:10157000134902980860322E04D1094807700020F0
:10158000074606462946684602F036FB72E7000029
:10159000780000207C0000204C0000201A0200206F
:1015A0007000002068000020B4000020B800002077
:1015B00064000020B60000206C00002028020020FB
:1015C0007400002008B5054628784FF47A7191FB25
:1015D000F0F0C0F3470602F059FB009010E0002441
:1015E00008E0084901EB041000F010F8064908551E
:1015F000601CC4B2042CF4DB3146684602F0FCFAED
:10160000EDE7000008010020780000202DE9F047F8
:1016100004462078FFF73EF880464046A168FEF772
:10162000FFFE15D24046A168FEF747FE814661687D
:10163000FEF749FE07461449FEF745FE06461349E4
:10164000FEF7E9FD0546FEF7CCFEC0B2BDE8F08727
:101650004046E168FEF7DAFE14D24046E168FEF744
:101660002CFE81466168FEF72EFE07460649FEF70E
:101670002AFE06460549FEF7CEFD0546FEF7B1FEF9
:10168000C0B2E3E73220E1E70000C8420000484270
:1016900010B500F02FFE10BD10B5421E02EB421235
:1016A000104B9A5C202A16DA421E02EB42121344B7
:1016B000421E02EB42120B4CA25C521C9954421E79
:1016C00002EB421223469A5C521CD3B2421E02EB3A
:1016D0004212A35405E02123421E02EB4212014CA8
:1016E000A35410BD340200200246002013890B4091
:1016F0000BB1012000E00020704701468889704747
:101700008181704770B504460E46002505E0681CCF
:10171000C5B2C82D01DD002070BD611E134A52F80C
:1017200021000221FFF7E0FF0028F0D0611E0F4AE0
:1017300052F821003146FFF7E3FF002505E0681C61
:10174000C5B2C82D01DD0020E6E7611E074A52F848
:1017500021000121FFF7C8FF0028F0D0611E034AD5
:1017600052F82100FFF7C9FFC0B2D5E7BC00002046
:1017700010B500F001F810BD0CB5002001900090EC
:101780003348006840F480303149086000BF304879
:10179000006800F4003000900198401C019000980F
:1017A00018B90198B0F5A06FF1D12948006800F48C
:1017B000003010B10120009001E00020009000985E
:1017C000012843D12348006840F0100021490860F7
:1017D0000846006820F0030008600846006840F0F2
:1017E000020008601A484068194948600846406885
:1017F00048600846406840F4806048600846406899
:1018000020F47C1048600846406840F4E8104860C6
:101810000846006840F08070086000BF0C4800680F
:1018200000F000700028F9D00948406820F003005B
:10183000074948600846406840F00200486000BF21
:101840000348406800F00C000828F9D10CBD0000E6
:10185000001002400020024010B502F007FA0128F3
:1018600001D001F0E5FE10BD10B51348006840F04E
:1018700001001149086008464068104908400E49B7
:101880004860084600680E4908400B490860084651
:10189000006820F4802008600846406820F4FE00BC
:1018A00048604FF41F008860FFF762FF4FF0006050
:1018B0000449086010BD0000001002400000FFF85D
:1018C000FFFFF6FE08ED00E00022411E01EBC11112
:1018D000014B5A54704700007602002010B500F00A
:1018E00017FE10BD10B540F22551094800F00AF965
:1018F00001280CD1064800F029FAC4B22146012083
:10190000FFF7CAFE40F22551014800F025F810BD4E
:101910000038014010B540F22551094800F0F2F8B6
:1019200001280CD1064800F011FAC4B22146022069
:10193000FFF7B2FE40F22551014800F00DF810BD4E
:10194000004400400022411E01EB4111014B5A545A
:10195000704700003402002010B50022002340F63A
:101960006A14A14200D100BF0A1201249440A3B21C
:10197000DC43048010BD21B1828942F4005282818F
:1019800004E082894DF6FF731A408281704700009F
:101990001FB501218803FFF72FFC01214804FFF741
:1019A0001BFC4FF4E13000900020ADF80C000C203F
:1019B000ADF80A000020ADF80800ADF80600ADF85B
:1019C0000400002407E0054951F82400694600F0AE
:1019D000E9F8601CC4B2022CF5DB1FBDC400002076
:1019E0001AB1838A0B43838202E0838A8B4383820A
:1019F0007047000010B58CB001210846FFF7DCFBF2
:101A000001210220FFF7D8FB002004901020039052
:101A100000200B90089080200690002009900790ED
:101A200005904FF480500A9000241CE0214850F8A3
:101A30002400001D019004EBC4101F490844401C01
:101A400002901E4951F8240001A9FEF790FF1949A0
:101A500051F8240001228021FFF7C2FF0220FEF787
:101A60004BFF601CC4B2022CE0DB01208DF80300A8
:101A700008208DF8010000208DF802000E208DF85E
:101A800000006846FFF742FB11208DF80000684611
:101A9000FFF73CFB002408E0084951F8240001222C
:101AA0000221FEF75BFF601CC4B2022CF4DB0CB019
:101AB00010BD0000C400002076020020CC000020F1
:101AC00008B501210420FFF797FB18208DF80300CB
:101AD00003208DF802004FF40170ADF80000694654
:101AE0000748FFF70DF804208DF803004FF48160DC
:101AF000ADF8000069460248FFF702F808BD000093
:101B00000008014070B50246002400230025002093
:101B100040F66A16B14200D100BFC1F3421501F090
:101B20001F03012606FA03F3012D02D196893340E3
:101B300006E0022D02D1168A334001E0968A334036
:101B40000C12012606FA04F41688344013B10CB1C5
:101B5000012000E0002070BDF0B5034600240026FF
:101B60000025002040F66A17B94200D100BF184690
:101B7000C1F3421401F01F06012707FA06F5012CF4
:101B800001D10C3004E0022C01D1103000E01430FF
:101B90001AB107682F43076002E00768AF43076088
:101BA000F0BD00002DE9F04786B005460E46002442
:101BB000A24600BFA1460027B08900B100BF2F4652
:101BC0002C8A4CF6FF700440F08804432C82AC89C8
:101BD0004EF6F3100440B0883189084371890843F8
:101BE0000443AC81AC8A4FF6FF400440B089044303
:101BF000AC8201A8FFF710FB1F48874202D1DDF835
:101C000010A001E0DDF80CA0A88900F4004040B16C
:101C10000AEBCA0000EB0A1031684900B0FBF1F88A
:101C200007E00AEBCA0000EB0A1031688900B0FB3C
:101C3000F1F86420B8FBF0F004012009642101FBF5
:101C40001089A88900F4004040B1322000EBC9009F
:101C5000B0FBF1F000F00700044308E0322000EB95
:101C600009106421B0FBF1F000F00F0004432C8157
:101C700006B0BDE8F08700000038014008B501203B
:101C80008DF803008DF8010000208DF8020025205A
:101C90008DF800006846FFF739FA26208DF800001D
:101CA0006846FFF733FA012240F225510948FFF751
:101CB00053FF012240F225510748FFF74DFF40F244
:101CC00025510448FFF748FE40F225510248FFF72E
:101CD00043FE08BD003801400044004030B50446D2
:101CE0000D46601E00EB40101749085CA84225DD38
:101CF000611E01EB4111144A515C491BCAB2611EBD
:101D000001EB4111104B5A5400200FE0611E01EB12
:101D100041110D4A0A44411C2944525C611E01EBE9
:101D20004111094B0B44411C5A54C8B2611E01EBCE
:101D30004111054A515C8142E8DC30BD2046FFF785
:101D400001FE00BFF9E70000340200200146888848
:101D5000C0F30800704700BFFEE700000146481EC0
:101D600000EBC010034A105C08B10120704700204E
:101D7000FCE70000760200200146481E00EB401000
:101D8000014A1044704700003402002070B5034639
:101D90000D4614461846FFF7E1FF18BB581E00EB2E
:101DA000C010114A1454002108E06A5C581E00EB70
:101DB000C0100D4E0644481C3254C1B2A142F4DB9F
:101DC000581E0A4A52F820004460581E52F820005B
:101DD000006840F00102581E044E56F820000260D0
:101DE000002070BD0120FCE776020020CC0000201E
:101DF0001FB501F04BFF039045E00A2103A801F055
:101E0000FBFE05212048006801F0FEFD01280BD1F2
:101E10000C2269461D48FFF769F900231A46194646
:101E20001948006801F0A6FC002407E0174951F8A2
:101E30002400214600F02EF8601CC4B2032CF5DB10
:101E400013490878FEF7AFFA0446032100F022F8A0
:101E50000F494878FEF7A7FA0446042100F01AF863
:101E60000B498878FEF79FFA0446052100F012F826
:101E70000749C878FEF797FA0446062100F00AF8E9
:101E800000F010F800BFB8E76C0000202802002026
:101E9000780000200A2902DA014A42F8210070473E
:101EA0004801002010B52C2202490120FFF76EFFE7
:101EB00010BD0000480100200FB4084B10B504A964
:101EC00002AA039800F01CF8044602A9002000F0C2
:101ED000F3F8204610BC5DF814FB0000B9200008A0
:101EE00002E008C8121F08C1002AFAD170477047E3
:101EF000002001E001C1121F002AFBD17047000041
:101F00002DE9FF4F8BB09A460F460546002606E0A6
:101F100025280BD052460D9990476D1C761C2878C9
:101F20000028F5D10FB03046BDE8F08F0024A04660
:101F30000122604900E0044315F8013F203B02FA0A
:101F400003F00842F7D128782E2817D115F8010F91
:101F500044F004042A280ED06FF02F022878A0F154
:101F6000300109290AD808EB880102EB410100EB96
:101F700001086D1CF2E757F8048B6D1C287869285E
:101F80003ED006DC0028CDD063280BD0642804D1D5
:101F900036E0732810D075284BD052460D999047E3
:101FA000761C85E017F8040B8DF8000000208DF8F2
:101FB0000100E946012003E057F8049B4FF0FF3091
:101FC00061074FF0000401D40AE0641C44450DDAB7
:101FD0008442FADB19F804100029F6D106E0641CEB
:101FE0008442FCDB19F804100029F8D1264404E0EF
:101FF00019F8010B52460D999047641EF8D257E02C
:1020000001CF4FF00A0B002802DA40422D2102E0F6
:10201000210504D52B218DF82410012103E0E107CF
:1020200005D02021F7E70DF1200908910CE00021EF
:10203000F9E701CF4FF00A0BF9E75946FEF7FAF935
:1020400001F1300209F8012D0028F6D1ADEB0900AD
:1020500000F1200B600701D44FF00108D84502DDE4
:10206000A8EB0B0000E000208046002406E009A851
:102070005246005D0D999047641C761C0898844276
:10208000F5DB04E0302052460D999047761CB8F1FC
:102090000001A8F10108F5DC05E019F8010B524632
:1020A0000D999047761CBBF10001ABF1010BF4DCFC
:1020B0006D1C34E7092801000A68531C0B6010707E
:1020C000704700001CB54FF44070FFF757F801212E
:1020D0000846FFF791F801212648FEF79DFDFEF71F
:1020E000BDFBFEF782FBFEF799FBFEF785FB4FF485
:1020F000FA7000F07FFFFEF77FFEFEF77DFE4FF4E3
:10210000FA7000F077FF00F005F904461CB11AA040
:10211000FEF722FE1BE03220194908700A204870A1
:10212000012088702020C870052209311548FEF76B
:10213000DDFF05221249091D1348FEF7D7FF10489D
:1021400000F06EF811A0FEF707FE00F0E1F94FF481
:102150007A7000F04FFF10480F2100239022CDE944
:1021600000100EA1104801F017FD01F06DF900BF3D
:10217000FEE70000000230006E7266206572720099
:102180001A02002034000020390000206E72662000
:1021900070617373000000004400002043726561A9
:1021A000745461736B000000ED12000810B586B026
:1021B00018A103C9CDE90401002418484068C0688B
:1021C00016490988884315494968C8600522694647
:1021D0000A2000F015F9052204A90A2000F042FAAD
:1021E000052202A90A2000F00BF9002008E002A94C
:1021F000095C04AA125C914200D00124411CC8B2BF
:102200000528F4DB052269460A2000F02BFA204657
:1022100006B010BD54657374000000005C420008F5
:1022200010B504460E2231492046FEF75FFF2F48C5
:1022300000787D2802DD7D202C4908702B48C0786D
:10224000202802DD20202949C870284840780F281E
:1022500002DD0F2025494870244880780F2802DDD0
:102260000F202249887022484068C06820490988A8
:1022700088431F494968C860E021072000F01EFA22
:10228000E22000F08FF9E12000F08CF91748407847
:10229000164A927840EA0210C1B2042000F00EFA09
:1022A00012480178052000F009FA1048C178122080
:1022B00000F004FA05220D49091D0B2000F0D2F9A7
:1022C00005220A4909310A2000F0CCF90522074904
:1022D0000931102000F0C6F90321022000F0EEF9C8
:1022E0000321012000F0EAF910BD0000980300204E
:1022F0005C42000810B5044800F0D0F8E22000F07D
:1023000051F9014810BD00007803002000487047D3
:10231000780300201FB500F0F5F9FFF747FF10B173
:10232000012004B010BDE021072000F0C7F9002013
:102330008DF8000002208DF8010001208DF80200C8
:1023400020208DF80300052201A90CA0FEF7CEFE87
:1023500005220DF109010BA0FEF7C8FE6846FFF744
:102360005FFF0F21062000F0A9F90F21002000F0E7
:10237000A5F900F0CDF80020D3E70000424F41540A
:1023800000000000555345520000000010B500F059
:1023900053F9044604F0100018B1FEF7F9FE00F0FE
:1023A0001FF804F0200018B1FFF798FA00F04AF97E
:1023B00004F0400018B1FFF76BF900F09DF8E02140
:1023C000072000F07BF910BD07E04FF0FF31034814
:1023D000006801F019FBFFF7D9FFF6E76000002065
:1023E00010B500200449087000231A46034800680D
:1023F00001F0C0F910BD0000BA0000206800002004
:102400002DE9F04105460E4617461248C068C068DF
:102410001049098988430F49C968C86029460220C4
:10242000FFF770F98046002406E0FF210220FFF745
:1024300069F93055601CC4B2BC42F6DB0548C0687F
:10244000C0680449098908430249C968C860404610
:10245000BDE8F0815C42000870B504460E48C068D3
:10246000C0680D49098988430B49C968C86021467D
:102470000220FFF747F9FF210220FFF743F9054645
:102480000548C068C0680449098908430249C96809
:10249000C860284670BD00005C42000870B5054663
:1024A0006020FFF7D9FF06461248C068C06811498E
:1024B000098988430F49C968C86061210220FFF774
:1024C00021F9002406E0FF210220FFF71BF928551F
:1024D000601CC4B2B442F6DB0648C068C068054957
:1024E000098908430349C968C860E22000F05AF826
:1024F000304670BD5C42000810B500231A461946EC
:102500000248006801F036F910BD000064000020A8
:1025100010B50E484068C0680C49098888430B49CB
:102520004968C8607021072000F0C8F80F2100201A
:1025300000F0C4F8044605484068C06803490988AB
:10254000084302494968C860204610BD5C42000843
:1025500070B504460D4612484068C06810490988A5
:1025600088430F494968C8607021072000F0A6F829
:10257000E12000F017F82A462146A02000F030F8AC
:102580000E21002000F09AF8064605484068C06811
:1025900003490988084302494968C860304670BD4C
:1025A0005C42000870B504460C48C068C0680B491E
:1025B000098988430949C968C86021460220FFF794
:1025C000A1F805460548C068C06804490989084360
:1025D0000249C968C860284670BD00005C42000816
:1025E0002DE9F04105460E4617461248C068C068FE
:1025F0001049098988430F49C968C86029460220E3
:10260000FFF780F8002406E0315D0220FFF77AF83A
:102610008046601CC4B2BC42F6DB0648C068C06895
:102620000449098908430349C968C8604046BDE8B0
:10263000F08100005C42000810B50720FFF70CFF96
:1026400010BD000010B501200449087000231A468F
:102650000348006801F08EF810BD0000BA000020A9
:10266000680000202DE9F04105460E461746124845
:10267000C068C0681049098988430F49C968C860A3
:1026800045F020010220FFF73DF88046002405E0D8
:10269000315D0220FFF736F8601CC4B2BC42F7DBA4
:1026A0000548C068C0680449098908430249C968E7
:1026B000C8604046BDE8F0815C42000870B5044641
:1026C0000D460F48C068C0680D49098988430C4908
:1026D000C968C86044F020010220FFF713F80646DD
:1026E00029460220FFF70EF80548C068C068044973
:1026F000098908430249C968C860304670BD0000B6
:102700005C4200081FB501218803FEF765FD012129
:102710000820FEF771FD01210420FEF76DFD4FF446
:102720000060ADF80C0010208DF80F0003208DF82C
:102730000E0003A94748FEF7E3F947484068C06820
:1027400045490988884344494968C8604FF4805026
:10275000ADF80C0003A93F48FEF7D2F93E48C06827
:10276000C0683D49098908433B49C968C8604FF4BE
:102770006040ADF80C0018208DF80F0003A9354813
:10278000FEF7BEF948208DF80F004FF48070ADF8C9
:102790000C0003A93148FEF7B3F92F48C068C068A0
:1027A0002D49098908432C49C968C86000202C4973
:1027B0000880084600880880084600880880084687
:1027C000008840F0040008800846008840F01800A7
:1027D00008800846008808800846008840F4807019
:1027E00008800846008840F4007008800846008889
:1027F00008800846008840F040000880FFF7D6FCBB
:1028000030BB01210846FEF7F7FC17208DF80800C1
:1028100001208DF80B0003208DF8090000208DF8B1
:102820000A0002A8FEF772FC4FF4807000900120AD
:102830008DF8060000208DF804000C208DF80500AE
:102840006846FEF7F3F808210020FEF739F900BFCB
:102850001FBD0000000C01405C4200080008014060
:10286000003800402DE9F04105460E46264807682D
:1028700026480068001D00F0DDFB50B923480068C1
:1028800090F82C1001208840214909688143204894
:102890000160681CD8B9D6B11E4948681B4909684F
:1028A00088601A4982680968CA6018490968091D60
:1028B0008268516015490968091D8160154A1349EC
:1028C00009684A6111460968491C11601AE07C19BF
:1028D0000E4800684460BC4207D20C480168091DDC
:1028E0000D48006800F0CAFB0CE008480168091DAB
:1028F0000A48006800F0C2FB09480068844201D21F
:1029000007480460BDE8F0819C0100208801002098
:10291000A0010020E8040020900100208C0100208C
:10292000B801002010B5044600F0CEFB2F48006827
:10293000401C2E4908602E48006840B92C480460AD
:102940000846006801280DD100F0ACF90AE02948DA
:10295000006838B926480068C06AE16A884201D830
:102960002348046024480068401C2349086094F808
:102970002C10012088402149096808431F4908603C
:10298000E16A01EB81011E4A02EB81014868A06007
:102990008268E260211D826851608160E16A01EB1A
:1029A0008101174A02EB81026261E16A01EB810158
:1029B000134A52F82110491CE26A02EB8202104BC2
:1029C00043F8221000F092FB0A48006868B10848FA
:1029D0000068C06AE16A884207D24FF08050094916
:1029E0000860BFF34F8FBFF36F8F10BD98010020B9
:1029F00088010020A4010020B4010020A0010020D3
:102A0000A803002004ED00E010B516E000F05CFB28
:102A10000C48C068C468201D00F00CFB0A48006820
:102A2000401E0949086009480068401E07490860BF
:102A300000F05CFB204600F05FF8044800680028C6
:102A4000E4D110BDD404002098010020940100209E
:102A500070B504460D46206C70B1216CE0680144ED
:102A6000E160D4E90210884201D32168E160284680
:102A7000226CE168FDF7A4FB70BD2DE9F04104462E
:102A80000F4615464FF00008A66B206C48B9206829
:102A900000282CD1A06801F0C7F980460020A06072
:102AA00025E07DB93946226C6068FDF789FB216C11
:102AB000606808446060D4E90101884217D3206847
:102AC000606014E03946226CE068FDF779FB216C08
:102AD000E068411AE1602168E068884203D2216C15
:102AE000A068411AE160022D01D106B1761E701C6A
:102AF000A0634046BDE8F08110B50446206B00F0AD
:102B000005FB204600F002FB10BD01464A6A22B1D7
:102B10000A6B1268C2F10C0000E000207047000050
:102B200030B54FF42053174800F007042CB1C01DF6
:102B300020F00700134C041B1B1B0246124C2260A2
:102B40000024114D6C60D018083820F007000F4C9D
:102B5000206000240D4D2D686C600C4D2D682C609C
:102B60001146441A4C60094C24680C60084D4C68AE
:102B70002C60084D4C682C604FF00044064D2C60D2
:102B800030BD0000FC040020CC010020D401002056
:102B9000DC010020D8010020E801002000BFFFF781
:102BA00033FF064800680128F9D94FF080500449E6
:102BB0000860BFF34F8FBFF36F8FF0E7A8030020CB
:102BC00004ED00E010B5044654B10020A060206080
:102BD0000021E16000231A461946204600F0CAFD94
:102BE00010BD2DE9F04106460D4617469846069C55
:102BF0000DB9246000E02760E663256401212046CA
:102C000000F068FDBDE8F0812DE9F05F81460E46D9
:102C100090469A460A9F0C9C4FEA8801A522206B99
:102C2000FDF7E0FAA8F10100216B01EB800B2BF01E
:102C3000070B86B1002507E0715D04F134004155B2
:102C4000705D00B902E06D1C102DF5D300BF0021AE
:102C50004320015502E0002084F834000C2F00D3FB
:102C60000B27E76267640020A064201D00F003FAD0
:102C700004F1180000F0FFF92461C7F10C00A06115
:102C800064620020E06484F8500052464946584689
:102C900000F09EF920600B9808B10B980460BDE825
:102CA000F09F000010B5002407E004EB84010F4AF8
:102CB00002EB810000F0D2F9641C0C2CF5D30C4817
:102CC00000F0CCF90B4800F0C9F90B4800F0C6F948
:102CD0000A4800F0C3F90A4800F0C0F9044809495D
:102CE000086004480849086010BD0000A8030020DF
:102CF00098040020AC040020C0040020D40400206C
:102D0000E80400208C0100209001002010B501464D
:102D1000164800E0006803688B42FBD30246436814
:102D200013448B4204D143684C68234443600146FA
:102D30000A464B6813440468A34211D10C4C036843
:102D40002468A34208D04B680468646823444B603D
:102D500003681B680B6005E0054B1B680B6001E016
:102D600003680B60884200D0016010BDCC010020D8
:102D7000D401002070B5054600F0A6F9A86B08B98B
:102D8000012400E0002400F0B1F9204670BD70B5C8
:102D9000054600F099F9A86BE96B884201D101243E
:102DA00000E0002400F0A2F9204670BD0948006848
:102DB000006808B9012000E0002020B14FF0FF308A
:102DC0000549086005E003480068C06800680249DA
:102DD000086070478C010020B801002000BFBF20B0
:102DE00080F31188BFF34F8FBFF36F8F00BF00BF19
:102DF000FEE7000010B5014600200A460B4C53695F
:102E0000A34201D1012300E0002373B1084C936A6F
:102E1000A34201D1012300E0002333B9936A0BB927
:102E2000012300E0002303B1012010BDE8040020CD
:102E3000C004002070B5044600F046F994F94550EE
:102E400010E0606A08B9012000E0002038B904F100
:102E5000240001F0B5F818B100F020FA00E003E01A
:102E6000681E45B2002DECDC00BFFF2084F8450051
:102E700000F03CF900F028F994F9445010E0206982
:102E800008B9012000E0002048B904F1100001F069
:102E900097F808B100F002FA681E45B200E001E0C0
:102EA000002DECDC00BFFF2084F8440000F01EF988
:102EB00070BD00002DE9F04104464FF0000800F01D
:102EC00065FB3548006808B9FFF72AFE33480068FB
:102ED000204000285BD1B4B104F10800A04212D90F
:102EE000083404F0070078B104F00700C0F10800CE
:102EF0002044A04205D904F00700C0F108000444B2
:102F000002E0002400E00024002C40D024480068A7
:102F100084423CD8234E3046056801E02E462D6899
:102F20006868A04202D228680028F7D11A480068D1
:102F300085422CD0306800F1080828683060686845
:102F4000001B102807D92F196868001B78606C6077
:102F50003846FFF7DBFE124968680968081A10490D
:102F600008600846006810490968884203D20C4886
:102F700000680D4908600949686809680843686085
:102F80000020286009480068401C0849086001F0DA
:102F90009BF84046BDE8F081D4010020E801002004
:102FA000D8010020CC010020DC010020E00100203D
:102FB0000648006830B10549096801F14800896C8C
:102FC000491C01600148006870470000880100202A
:102FD000001F4FF080730360001F21F001030360A6
:102FE000001F034B03601438026020387047000054
:102FF000DD2D000810B5044605E04FF47A7000F0AE
:1030000005F8601E84B2002CF7D110BD08B5002170
:10301000009109E00221009100BFBDF800104A1E96
:1030200092B200920029F8D1011EA0F1010290B2E3
:10303000F0D108BD01460A69D1E901309860D1E9B3
:10304000010358605068884201D1886850600020B0
:1030500008611068401E10601068704700F1080198
:1030600041604FF0FF31816000F10801C1600161F2
:1030700000210160704700210161704710B50246D0
:103080000B685C1C0CB9106907E002F1080000E055
:103090004068446824689C42FAD944684C604C6893
:1030A000A160886041600A611468641C146010BDEE
:1030B00042684A6093688B609368596091600861C8
:1030C00003685B1C0360704700BFBF2080F311885A
:1030D000BFF34F8FBFF36F8F00BF03480068401CE2
:1030E0000149086070470000C801002006480068D8
:1030F000401E054908600846006820B9002080F39A
:10310000118800BF00BF7047C801002070B5064697
:103110003546FEB1083D2C460F49606809680840F5
:10312000C0B12068B0B90C49606809688843606024
:1031300000F02CFA094960680968084407490860EA
:103140002046FFF7E3FD06480068401C044908607C
:1031500000F0BAFF70BD0000E8010020D801002097
:10316000E401002000204FF0E0210861886102485E
:1031700048610720086170477F32020070B504463D
:10318000002544B100F002FA00212046FFF76AFB57
:1031900000F09AFF05463DB94FF0805003490860A2
:1031A000BFF34F8FBFF36F8F70BD000004ED00E0E1
:1031B00070B50546FFF788FF15B92948006800E09B
:1031C00028460446201DFFF735FF78B9E06A00EB7A
:1031D0008000244951F8200040B994F82C100120B7
:1031E00088402149096881431F480160A06A18B1DD
:1031F00004F11800FFF71EFF1C480068401C1B4923
:10320000086017480068844209D1211D1848FFF75B
:103210004FFF18480068401C1649086006E0164831
:103220000068401E14490860FFF7C0FDFFF75EFF0D
:103230000B480068844202D02046FFF75DFC0F482F
:10324000006858B106480068844207D14FF08050AA
:103250000B490860BFF34F8FBFF36F8F70BD000045
:1032600088010020A8030020A0010020B401002054
:10327000D40400209401002098010020A401002023
:1032800004ED00E0034909680160034909684160F1
:1032900070470000B00100209C010020012001497E
:1032A00008607047AC01002070B505460C46054823
:1032B000016818312846FFF7E1FE01212046FFF79B
:1032C000D1FA70BD880100202DE9F04706460F466F
:1032D00034464FF00109002E5AD0606CB84201D23A
:1032E0003D4600E0656CE06AA84251D0A06C012820
:1032F0004ED1D4F82C80E562A06900F0004010B9EE
:10330000C5F10C00A06108EB8801224A02EB8101A3
:103310006069884201D1012000E00020C0B3201D77
:10332000FFF788FE40B994F82C10012088401A4914
:10333000096881431848016094F82C1001208840E6
:1033400015490968084314490860E16A01EB8101E5
:10335000104A02EB81014868A0608268E260211D8A
:10336000826851608160E16A01EB8101094A02EBE8
:1033700081026261E16A01EB8101064A52F8211083
:10338000491CE26A02EB8202024B43F8221000BFA2
:10339000BDE8F087A8030020A001002070B5054615
:1033A0002C4625480068844245D0002C43D0FFF7C6
:1033B0008BFE2046FFF71EFDD8B3201DFFF73AFE17
:1033C00094F82C10012088401C49096808431B49C7
:1033D0000860E16A01EB8101194A02EB810148684A
:1033E000A0608268E260211D826851608160E16AAC
:1033F00001EB8101124A02EB81026261E16A01EB99
:1034000081010F4A52F82110491CE26A02EB820244
:103410000B4B43F822100849E06A0968C96A8842E0
:1034200007D34FF0805007490860BFF34F8FBFF3B9
:103430006F8FFFF75BFE70BD88010020A0010020A8
:10344000A803002004ED00E01CB5124800210B4643
:103450008022CDE9001010A1114800F09DFB044628
:10346000012C14D100BFBF2080F31188BFF34F8F10
:10347000BFF36F8F00BF4FF0FF300A490860012093
:103480000949086000200949086000F0B7F80848B9
:1034900000681CBDBC01002049444C4500000000F0
:1034A0009D2B0008B8010020A40100209C010020F1
:1034B000C001002070B50546FFF706FE15B92C487F
:1034C000006800E028460446201DFFF7B3FD78B9E8
:1034D000E06A00EB8000274951F8200040B994F8D9
:1034E0002C1001208840244909688143224801604A
:1034F000A06A18B104F11800FFF79CFD211D1F48B8
:10350000FFF7D6FD002009E004F15001095C012914
:1035100003D1002204F150010A54401C0128F3DBBE
:10352000FFF7E4FD1648006828B1FFF7CDFDFFF76F
:103530003DFCFFF7DBFD0E480068844217D11048C0
:10354000006840B14FF080500E490860BFF34F8FC4
:10355000BFF36F8F0BE0094800680B490968884288
:1035600003D100200249086001E000F017F870BDA7
:1035700088010020A8030020A0010020E80400200A
:10358000A401002004ED00E098010020024800683A
:10359000401C014908607047C401002012480068BF
:1035A00018B10120114908601DE000200F49086092
:1035B0000F480068B0FA80F0C0F11F0101EB8102F2
:1035C0000C4B03EB820042685268426000F1080233
:1035D0004368934202D14268526842604268D268AE
:1035E000054B1A6000BF7047C4010020AC010020E9
:1035F000A0010020A80300208801002010B50A487F
:10360000006840F47F00084908600846006840F000
:103610007F400860FFF7A6FD002004490860FCF722
:1036200083FD002010BD000020ED00E0C801002057
:1036300010B500BFBF2080F31188BFF34F8FBFF3D9
:103640006F8F00BF00F028FB18B14FF08050044985
:10365000086000BF002080F3118800BF10BD00008B
:1036600004ED00E02DE9F041044601260027224642
:103670000021012000F007F805462846FFF7A2FACE
:103680002846BDE8F0812DE9F84304460E4617466A
:103690000025DCB1681EB0FBF4F0B04216D304FB89
:1036A00006F010F1490F11D804FB06F909F14800A2
:1036B000FFF700FC05464DB1A84608F148083B4617
:1036C0004246314620460095FFF78BFA2846BDE872
:1036D000F88300002DE9F04105460E4601272C46EF
:1036E000002C41D0E06B00283ED0B91EE06BB1FB4E
:1036F000F0F0216C884237D3FFF7E6FCD4E90F12D3
:10370000206801FB0200A0600020A06320686060C8
:10371000E06B401E226C216800FB0211E160FF207B
:1037200084F8440084F845009EB9206908B9012056
:1037300000E00020A8B904F1100000F041FC80B1C5
:103740004FF080500A490860BFF34F8FBFF36F8F6F
:1037500007E004F11000FFF781FC04F12400FFF7FB
:103760007DFCFFF7C3FC00E000273846BDE8F08190
:1037700004ED00E02DE9FF4383B0074688461D466F
:103780004FF000093C4600BFFFF79EFCA06BE16BC9
:10379000884201D3022D28D12A4641462046FFF710
:1037A0006CF90646606A08B9012000E0002068B99B
:1037B00004F1240000F004FC88B14FF0805032493D
:1037C0000860BFF34F8FBFF36F8F08E03EB14FF03B
:1037D00080502D490860BFF34F8FBFF36F8FFFF705
:1037E00085FC012007B0BDE8F083059818B9FFF704
:1037F0007DFC0020F6E7B9F1000F04D101A8FFF726
:1038000041FD4FF00109FFF771FCFFF7BFFEFFF725
:103810005BFC94F94400401C10B9002084F844007B
:1038200094F94500401C10B9002084F84500FFF7CA
:103830005DFC05A901A800F07FF9F0B92046FFF76B
:10384000A6FAA0B104F110000599FFF72DFD20465E
:10385000FFF7F0FA00F038FC002895D14FF08050C7
:1038600009490860BFF34F8FBFF36F8F8CE7204685
:10387000FFF7E0FA00F028FC86E72046FFF7DAFAC7
:1038800000F022FC0020ADE704ED00E02DE9F04758
:1038900005460E462C4600BFBF21EFF3118081F391
:1038A0001188BFF34F8FBFF36F8F00BF8046D4F8EE
:1038B0003890E06B48451DD994F945A009F1010005
:1038C000A0630AF1010070B9606A08B9012000E044
:1038D000002068B904F1240000F072FB40B13EB151
:1038E0000120306004E00AF1010040B284F8450094
:1038F000012700E0002700BF88F3118800BF384689
:10390000BDE8F0872DE9F74183B005460F464FF03B
:1039100000082C4600BFFFF7D7FBA66BF6B139466F
:103920002046FFF795F8701EA063206908B90120B2
:1039300000E0002060B904F1100000F041FB38B154
:103940004FF080502F490860BFF34F8FBFF36F8F48
:10395000FFF7CCFB012006B0BDE8F081059818B94F
:10396000FFF7C4FB0020F6E7B8F1000F04D101A86F
:10397000FFF788FC4FF00108FFF7B8FBFFF706FEE2
:10398000FFF7A2FB94F94400401C10B9002084F812
:10399000440094F94500401C10B9002084F845000B
:1039A000FFF7A4FB05A901A800F0C6F8F0B920466E
:1039B000FFF7E0F9A0B104F124000599FFF774FCCA
:1039C0002046FFF737FA00F07FFB0028A3D14FF025
:1039D00080500C490860BFF34F8FBFF36F8F9AE799
:1039E0002046FFF727FA00F06FFB94E72046FFF729
:1039F00021FA00F069FB2046FFF7BCF900288AD0C5
:103A00000020A8E704ED00E02DE9F34182B005466F
:103A100000272C46B84600BFFFF756FBA66BFEB149
:103A2000701EA063206810B9FFF7C2FAA060206979
:103A300008B9012000E0002060B904F1100000F096
:103A4000BFFA38B14FF080503A490860BFF34F8F4A
:103A5000BFF36F8FFFF74AFB012004B0BDE8F08190
:103A6000039818B9FFF742FB0020F6E71FB9684634
:103A7000FFF708FC0127FFF739FBFFF787FDFFF78A
:103A800023FB94F94400401C10B9002084F8440042
:103A900094F94500401C10B9002084F84500FFF758
:103AA00025FB03A9684600F047F840BB2046FFF716
:103AB00061F9F0B1206838B9FFF706FBA06800F0A3
:103AC00009FA8046FFF712FB04F124000399FFF77F
:103AD000EBFB2046FFF7AEF900F0F6FA00289BD189
:103AE0004FF0805013490860BFF34F8FBFF36F8FC3
:103AF00092E72046FFF79EF900F0E6FA8CE72046B1
:103B0000FFF798F900F0E0FA2046FFF733F90028B4
:103B100082D0B8F1000F0BD0FFF7D6FA2046FEF79F
:103B2000F4FF06463146A068FFF7CEFBFFF7DEFA4A
:103B3000002092E704ED00E070B506460C46FFF762
:103B4000C3FA134802687068131A2068401C08B949
:103B5000002519E00F4930680968884206D070686E
:103B6000904203D80125002020600DE02068984293
:103B700007D92068C01A20603046FFF783FB002574
:103B800002E0002020600125FFF7B0FA284670BD52
:103B90009C010020B00100202DE9FF4F85B0804638
:103BA00089461746DDE912ABB800FFF783F90646F0
:103BB00056B15420FFF77EF904460CB1266304E0A9
:103BC0003046FFF7A3FA00E000247CB10020CDE9E5
:103BD00000ABCDE902403A4649464046089BFFF714
:103BE00013F82046FEF79EFE012501E04FF0FF3559
:103BF000284609B0BDE8F08F2DE9F0470446884615
:103C00004FF00009FFF7C2FC16480668206800EB79
:103C100008052068B04207D92068A8420BD9B542F0
:103C200009D94FF0010906E02068A84201D8B54241
:103C300001D94FF001092560B9F1000F03D0A81B8D
:103C40000021FEF70FFE00F03FFA07463FB94FF0A4
:103C5000805005490860BFF34F8FBFF36F8F484610
:103C6000BDE8F0879C01002004ED00E005490968EB
:103C700009B9012005E00449096809B9022000E0FA
:103C800000207047A4010020C401002001490868F9
:103C9000704700009C0100202DE9F04100275748A3
:103CA000006800287ED156480068451C54480560CD
:103CB0008DB95448D0F800805348006851490860D5
:103CC0005148C0F8008051480068401C4F490860C6
:103CD000FFF76CF800BF4E480068854276D300BFFE
:103CE00048480068006808B9012000E0002020B1C1
:103CF0004FF0FF304649086067E042480068C068FE
:103D0000C4686668B54202D2414806605DE06069F9
:103D1000D4E902128A60D4E902214A60211D426876
:103D20008A4201D1E1684160002262610168491E56
:103D30000160A06A98B1A06AD4E907128A60D4E948
:103D400007214A6004F1180142688A4201D1216AC0
:103D500041600022A2620168491E016000BF94F820
:103D60002C10012088402B49096808432949086024
:103D7000E16A01EB8101284A02EB81014868A060F9
:103D80008268E260211D826851608160E16A01EB16
:103D90008101214A02EB81026261E16A01EB81014A
:103DA0001D4A00E022E052F82110491CE26A02EBB1
:103DB0008202194B43F822101849E06A0968C96A5F
:103DC00088428DD301278BE700E000BF13480068CD
:103DD000C06A00EB8000104951F82000012800D98A
:103DE00001270F48006800B1012704E00D48006872
:103DF000401C0C4908603846BDE8F081C401002031
:103E00009C0100208C01002090010020B0010020C6
:103E1000B8010020A0010020A80300208801002094
:103E2000AC010020A801002070B505462C460026F4
:103E3000002D48D0A06C401EA064616CE06A8842EE
:103E400041D0A06C00283ED1201DFFF7F3F840B907
:103E500094F82C10012088401C49096881431B48B4
:103E60000160606CE062E06AC0F10C00A06194F84F
:103E70002C1001208840154909680843134908603F
:103E8000E16A01EB8101124A02EB81014868A060FE
:103E90008268E260211D826851608160E16A01EB05
:103EA00081010B4A02EB81026261E16A01EB81014F
:103EB000074A52F82110491CE26A02EB8202044BC5
:103EC00043F822100126304670BD0000A0010020FA
:103ED000A803002070B505462C460026002D67D0AB
:103EE0003449E06A0968C96A88425AD2A06900F078
:103EF000004028B92F480068C06AC0F10C00A061DA
:103F0000E16A01EB81012C4A02EB81016069884280
:103F100001D1012000E00020E0B3201DFFF78AF866
:103F200040B994F82C100120884024490968814345
:103F3000224801601F480068C06AE06294F82C10B3
:103F4000012088401D49096808431C490860E16A4E
:103F500001EB8101184A02EB81014868A060826888
:103F6000E260211D826851608160E16A01EB81019C
:103F7000114A02EB81026261E16A01EB81010E4AA2
:103F800052F82110491CE26A02EB82020A4B43F804
:103F9000221004E0FFE707480068C06AE0620126DB
:103FA00006E00449606C0968C96A884200D20126AB
:103FB000304670BD88010020A8030020A001002029
:103FC00070B50346D868C168886AD1E90745A5601D
:103FD000D1E90754656001F118044568A54201D193
:103FE0000C6A446000258D620468641E04603048D9
:103FF000006800283DD14869D1E90245A560D1E9B2
:10400000025465600C1D4568A54201D1CC6844602E
:1040100000254D610468641E046091F82C40012065
:10402000A040244C24682043224C2060CC6A04EB3E
:104030008404214D05EB8404606888608568CD6048
:104040000C1D85686C608460CC6A04EB84041A4D96
:1040500005EB84054D61CC6A04EB8404164D55F8DC
:104060002440641CCD6A05EB8505134E46F82540B7
:1040700010E0124C6068C86185680D6201F1180497
:1040800085686C6084600D4D8D622C462468641CCC
:104090002C6000BF0A4CC86A2468E46AA04204D9B4
:1040A00001220120074C206000E00022104670BD74
:1040B000C4010020A0010020A8030020C0040020AB
:1040C00088010020AC01002070B500240026FEF716
:1040D000FBFF4B480068401E4949086008460068DD
:1040E00000287DD147480068002879D05BE0464829
:1040F000C068C468A06AD4E907128A60D4E90721BD
:104100004A6004F1180142688A4201D1216A416083
:104110000022A2620168491E01606069D4E90212AE
:104120008A60D4E902214A60211D42688A4201D195
:10413000E1684160002262610168491E016094F8F3
:104140002C10012088403149096808432F49086034
:10415000E16A01EB81012E4A02EB81014868A0600F
:104160008268E260211D826851608160E16A01EB32
:104170008101274A02EB81026261E16A01EB810160
:10418000234A52F82110491CE26A02EB8202204BBA
:1041900043F822101F49E06A0968C96A884202D3BD
:1041A00001201D4908601848006808B9012000E096
:1041B000002000289BD00CB1FEF7F8FD17480568D9
:1041C00065B100BFFFF768FD10B10120124908601A
:1041D0006D1E002DF6D10020104908600E4800E049
:1041E00009E0006838B1012630070D490860BFF3C7
:1041F0004F8FBFF36F8FFEF779FF304670BD000021
:10420000C401002098010020C0040020A00100206B
:10421000A803002088010020AC010020A801002094
:1042200004ED00E010000000000C01402000000040
:10423000000C0140020000000008014010000000D6
:1042400000080140010000000008014008090401C5
:10425000000000000080000000080140000800008D
:10426000000C014000100000000C01400080000024
:10427000000C014000400000000C01400020000044
:10428000000C014072657374000000000000000023
:10429000000000006D7367007369000076616C00B8
:1042A000766F00006D737000737370007478740023
:1042B0006678000076616C5F790000006679000026
:1042C000667A0000E442000800000020EC010000D3
:1042D000F404000880430008EC010020142F0000C3
:1042E000F01E000811143001401238022A4000105C
:1042F00040807F43165243FF43164254FF3232142C
:10430000093180F93C1A380812441340441C024019
:1043100080044113AC421B0894041AB4041A9C0490
:104320001AA4041AA8041A98041AB0041ABC041A8D
:10433000C0041AA00481580E1F85C340AE47013F38
:10434000C976FE3E0110319F3F48E1FA3E02203619
:1043500091EDFC3E03080D2EA470BD405C8F023F22
:10436000DBF9FE3EC02D01020304047808060708AD
:1043700009020406840130720B1AAA010120000010
:04000005080000ED02
:00000001FF
